:100000000C9434000C9451000C9451000C94510049
:100010000C9451000C9451000C9451000C9451001C
:100020000C9451000C9451000C9451000C9451000C
:100030000C9451000C9451000C9451000C945100FC
:100040000C9451000C9451000C9451000C945100EC
:100050000C9451000C9451000C9451000C945100DC
:100060000C9451000C94510011241FBECFEFD8E026
:10007000DEBFCDBF11E0A0E0B1E0E0EFF4E002C0F0
:1000800005900D92AA31B107D9F721E0AAE1B1E0BC
:1000900001C01D92A633B207E1F70E9498010C94AB
:1000A00076020C9400000F931F93CF938B019C0159
:1000B000C42F87B18F7C87B9443079F018F4413070
:1000C00031F023C0403191F04034C9F01EC0E9EB5B
:1000D000F0E080818C7F80831EC0E9EBF0E08081BE
:1000E0008D7F808380818160808315C0E9EBF0E0A3
:1000F00080818E7F80838081826080830CC0E9EB69
:10010000F0E080818360808306C0E9EBF0E08081CD
:100110008C7F8083C1E060E074E284EF90E0A9010D
:1001200098010E941F02CA01B90160517109810939
:1001300091094C2F50E09A01220F331F032E000C1F
:10014000440B550B0E941F022093B800ECEBF0E02B
:10015000808184608083CF911F910F91089584EAFC
:100160008093BC008091BC008823E4F7089584E963
:100170008093BC0008958093BB0084E88093BC000A
:100180008091BC008823E4F785B18F7E85B980918A
:10019000B900887F883131F0883231F0803429F419
:1001A00081E0089581E0089581E0089580FF04C012
:1001B0009BB190619BB903C09BB19F7E9BB981FFAE
:1001C00004C09BB190629BB903C09BB19F7D9BB95A
:1001D00082FF04C09BB190649BB903C09BB19F7B1D
:1001E0009BB983FF04C09BB190689BB903C09BB1CE
:1001F0009F779BB984FF04C095B1916095B903C006
:1002000095B19E7F95B985FF04C095B1926095B96F
:1002100003C095B19D7F95B986FF04C095B19460E8
:1002200095B903C095B19B7F95B9882324F485B116
:10023000886085B9089585B1877F85B908959BB198
:100240009B7F9BB90E94D6008BB188608BB98FE7EA
:100250009EE30197F1F700C000008BB1877F8BB957
:1002600008958AB18C6F8AB984B18F6084B915B84A
:100270001BB880E00E94D6002FEF89EF90E021505C
:1002800080409040E1F700C0000088E30E941F0119
:100290008FE891E00197F1F700C000008CE00E9428
:1002A0001F018FE891E00197F1F700C0000086E0A0
:1002B0000E941F018FE891E00197F1F700C0000054
:1002C00081E00E941F0108959BB194609BB90E9438
:1002D000D6008BB188608BB98FE79EE30197F1F769
:1002E00000C000008BB1877F8BB908950F931F93D7
:1002F000CF93DF938C01C0E0D0E003C00E94640183
:100300002196F801EC0FFD1F80818111F7CFDF915D
:10031000CF911F910F910895613021F480580E9470
:100320001F010895623019F480540E941F0108953E
:10033000F89441E060EA76E881E090E00E945300A2
:100340000E94310184B1806184B9789461E081E0D8
:100350000E948C0180E091E00E94760161E088E0DB
:100360000E948C0184E091E00E94760185B1806159
:1003700085B90E94AF0081E2809320010E94BB00FA
:1003800080932101813031F00E94B70085B18F7ECA
:1003900085B910C084E88093BC008091BC0088239C
:1003A000E4F78091BB0080931A010E94B70085B1E9
:1003B0008F7E85B980911A018A3058F44AE062E252
:1003C00071E090E00E94410290931E0180931D0114
:1003D00017C0843658F44AE067E271E090E00E946A
:1003E000410290931E0180931D010AC04AE06CE215
:1003F00071E090E00E94410290931E0180931D01E4
:1004000062E080E00E948C0180911D0190911E01AC
:100410000E9476011092220110922C011092270165
:100420008FEF99EF0197F1F700C0000062E080E0E4
:100430000E948C0188E091E00E94760197CFA1E2B2
:100440001A2EAA1BBB1BFD010DC0AA1FBB1FEE1F4E
:10045000FF1FA217B307E407F50720F0A21BB30B99
:10046000E40BF50B661F771F881F991F1A9469F715
:1004700060957095809590959B01AC01BD01CF0171
:100480000895BB274A3031F4992322F4BDE29095B8
:1004900081959F4F0C944D02BB27FB015527AA273E
:1004A000880F991FAA1FA41710F0A41B8395505101
:1004B000B9F7A05DAA3308F0A95DA193009779F779
:1004C000B111B1931192CB010C946602DC01FC01D5
:1004D000672F71917723E1F7329704C07C916D9378
:1004E00070836291AE17BF07C8F30895F894FFCFE9
:1004F00053313A0053323A0020202020202020207F
:0A05000020202020202020200000F1
:00000001FF
